:020000040800F2
:100000000004001061020008910200089502000837
:10001000990200089D020008A102000800000000EB
:10002000000000000000000000000000A502000821
:10003000A902000800000000AD020008E552000817
:10004000B5020008B5020008B5020008B5020008B4
:10005000B5020008B5020008B5020008B5020008A4
:10006000B5020008B5020008B5020008B502000894
:10007000B5020008B5020008B5020008B502000884
:10008000B5020008B5020008B5020008B502000874
:10009000B5020008B5020008B5020008B502000864
:1000A000B5020008B5020008B5020008B502000854
:1000B000B5020008B5020008B5020008B502000844
:1000C000B5020008B5020008B5020008B502000834
:1000D000B5020008055D0008B5020008515D000882
:1000E000B5020008B5020008B5020008B502000814
:1000F000B5020008B5020008B5020008B502000804
:10010000B5020008B5020008B5020008B5020008F3
:10011000B5020008B5020008B5020008B5020008E3
:10012000B5020008B5020008B5020008B5020008D3
:10013000B5020008B5020008B5020008B5020008C3
:10014000B5020008B5020008B5020008B5020008B3
:10015000B5020008B5020008B5020008B5020008A3
:10016000B5020008B5020008B5020008B502000893
:10017000B5020008B5020008B50200080000000042
:10018000B5020008B5020008B5020008B502000873
:10019000B5020008B5020008B50200080000000022
:0C01A000B5020008B5020008B502000816
:1001B00001F0FF01102A2BDB10F0070F08D010F818
:1001C000013B013A8B422DD010F0070F42B3F6D11C
:1001D000F0B441EA012141EA014122F007047FF035
:1001E00000070023F0E80256083C85EA010586EA8C
:1001F000010685FA47F5A3FA87F586FA47F6A5FAC8
:1002000087F68EB9EED1F0BC01F0FF0102F00702D3
:1002100032B110F8013B013A83EA010313B1F8D17E
:100220000020704701387047002D06BF354603385F
:10023000073815F0010F07D1013015F4807F02BF98
:10024000013015F4C03F0130F0BC0138704700BFE9
:10025000034613F8012B002AFBD1181A0138704706
:100260001549164A164B03E051F8040B42F8040BEB
:100270009A42F9D3134A144C002301E042F8043B9C
:10028000A242FBD31148804704F02AF8FEE700BFE2
:10029000FEE700BFFEE700BFFEE700BFFEE700BFCE
:1002A000FEE700BFFEE700BFFEE700BFFEE700BFBE
:1002B000FEE700BFFEE70000988400080000002071
:1002C000CC010020CC0100203C0800209D640008E7
:1002D00081F0004102E000BF83F0004330B54FEAF7
:1002E00041044FEA430594EA050F08BF90EA020F64
:1002F0001FBF54EA000C55EA020C7FEA645C7FEAF7
:10030000655C00F0E2804FEA5454D4EB5555B8BF19
:100310006D420CDD2C4480EA020281EA030382EA8A
:10032000000083EA010180EA020281EA0303362D1C
:1003300088BF30BD11F0004F4FEA01314FF4801CEF
:100340004CEA113102D0404261EB410113F0004F01
:100350004FEA03334CEA133302D0524263EB4303B8
:1003600094EA050F00F0A780A4F10104D5F1200E56
:100370000DDB02FA0EFC22FA05F2801841F10001B1
:1003800003FA0EF2801843FA05F359410EE0A5F185
:1003900020050EF1200E012A03FA0EFC28BF4CF0B6
:1003A000020C43FA05F3C01851EBE37101F000456C
:1003B00007D54FF0000EDCF1000C7EEB00006EEB79
:1003C0000101B1F5801F1BD3B1F5001F0CD3490803
:1003D0005FEA30004FEA3C0C04F101044FEA44525A
:1003E00012F5800F80F09A80BCF1004F08BF5FEAE1
:1003F000500C50F1000041EB045141EA050130BDC1
:100400005FEA4C0C404141EB0101013C28BFB1F5D2
:10041000801FE9D291F0000F04BF01460020B1FA1D
:1004200081F308BF2033A3F10B03B3F120020CDAF0
:100430000C3208DD02F1140CC2F10C0201FA0CF0CE
:1004400021FA02F10CE002F11402D8BFC2F1200C33
:1004500001FA02F120FA0CFCDCBF41EA0C019040E9
:10046000E41AA2BF01EB0451294330BD6FEA040432
:100470001F3C1CDA0C340EDC04F11404C4F120021D
:1004800020FA04F001FA02F340EA030021FA04F32F
:1004900045EA030130BDC4F10C04C4F1200220FA86
:1004A00002F001FA04F340EA0300294630BD21FAC4
:1004B00004F0294630BD94F0000F83F4801306BF8A
:1004C00081F480110134013D4EE77FEA645C18BF7E
:1004D0007FEA655C29D094EA050F08BF90EA020F15
:1004E00005D054EA000C04BF1946104630BD91EA0D
:1004F000030F1EBF0021002030BD5FEA545C05D110
:100500004000494128BF41F0004130BD14F580044E
:100510003CBF01F5801130BD01F0004545F0FE41C2
:1005200041F470014FF0000030BD7FEA645C1ABFF7
:10053000194610467FEA655C1CBF0B46024650EA2E
:10054000013406BF52EA033591EA030F41F400215A
:1005500030BD00BF90F0000F04BF0021704730B5E0
:100560004FF4806404F132044FF000054FF00001B5
:1005700050E700BF90F0000F04BF0021704730B576
:100580004FF4806404F1320410F0004548BF40424B
:100590004FF000013EE700BF42004FEAE2014FEAA0
:1005A00031014FEA02701FBF12F07F4393F07F4F7B
:1005B00081F06051704732F07F4208BF704793F07E
:1005C0007F4F04BF41F40021704730B54FF4607491
:1005D00001F0004521F000411CE700BF50EA010294
:1005E00008BF704730B54FF000050AE050EA01023D
:1005F00008BF704730B511F0004502D5404261EBAD
:1006000041014FF4806404F132045FEA915C3FF4ED
:10061000D8AE4FF003025FEADC0C18BF03325FEA8A
:10062000DC0C18BF033202EBDC02C2F1200300FA3B
:1006300003FC20FA02F001FA03FE40EA0E0021FA60
:1006400002F11444BDE600BF70B54FF0FF0C4CF44E
:10065000E06C1CEA11541DBF1CEA135594EA0C0F00
:1006600095EA0C0F00F0DEF82C4481EA030621EA3B
:100670004C5123EA4C5350EA013518BF52EA033576
:1006800041F4801143F4801338D0A0FB02CE4FF028
:100690000005E1FB02E506F00042E0FB03E54FF058
:1006A0000006E1FB03569CF0000F18BF4EF0010E50
:1006B000A4F1FF04B6F5007F64F5407404D25FEA4C
:1006C0004E0E6D4146EB060642EAC62141EA5551FF
:1006D0004FEAC52040EA5E504FEACE2EB4F1FD0C41
:1006E00088BFBCF5E06F1ED8BEF1004F08BF5FEABF
:1006F000500E50F1000041EB045170BD06F0004671
:1007000046EA010140EA020081EA0301B4EB5C041D
:10071000C2BFD4EB0C0541EA045170BD41F4801115
:100720004FF0000E013C00F3AB8014F1360FDEBF3A
:10073000002001F0004170BDC4F10004203C35DA16
:100740000C341BDC04F11404C4F1200500FA05F399
:1007500020FA04F001FA05F240EA020001F000423A
:1007600021F0004110EBD37021FA04F642EB0601B0
:100770005EEA430E08BF20EAD37070BDC4F10C04DA
:10078000C4F1200500FA04F320FA05F001FA04F29E
:1007900040EA020001F0004110EBD37041F100018A
:1007A0005EEA430E08BF20EAD37070BDC4F1200595
:1007B00000FA05F24EEA020E20FA04F301FA05F2FD
:1007C00043EA020321FA04F001F0004121FA04F2A5
:1007D00020EA020000EBD3705EEA430E08BF20EA75
:1007E000D37070BD94F0000F0FD101F000464000AF
:1007F00041EB010111F4801F08BF013CF7D041EA31
:10080000060195F0000F18BF704703F00046520034
:1008100043EB030313F4801F08BF013DF7D043EA05
:100820000603704794EA0C0F0CEA135518BF95EABB
:100830000C0F0CD050EA410618BF52EA4306D1D142
:1008400081EA030101F000414FF0000070BD50EA61
:10085000410606BF1046194652EA430619D094EAEB
:100860000C0F02D150EA013613D195EA0C0F05D1D5
:1008700052EA03361CBF104619460AD181EA030129
:1008800001F0004141F0FE4141F470014FF00000E1
:1008900070BD41F0FE4141F4780170BD70B54FF07C
:1008A000FF0C4CF4E06C1CEA11541DBF1CEA1355FC
:1008B00094EA0C0F95EA0C0F00F0A7F8A4EB0504DE
:1008C00081EA030E52EA03354FEA013100F08880D5
:1008D0004FEA03334FF0805545EA131343EA12639E
:1008E0004FEA022245EA111545EA10654FEA002653
:1008F0000EF000419D4208BF964244F1FD0404F50C
:10090000407402D25B084FEA3202B61A65EB030567
:100910005B084FEA32024FF480104FF4002CB6EB24
:10092000020E75EB030E22BFB61A754640EA0C00A4
:100930005B084FEA3202B6EB020E75EB030E22BFE4
:10094000B61A754640EA5C005B084FEA3202B6EB25
:10095000020E75EB030E22BFB61A754640EA9C00E4
:100960005B084FEA3202B6EB020E75EB030E22BFB4
:10097000B61A754640EADC0055EA060E18D04FEA72
:10098000051545EA16754FEA06164FEAC30343EA12
:1009900052734FEAC2025FEA1C1CC0D111F4801FDF
:1009A0000BD141EA00014FF000004FF0004CB6E7D8
:1009B00011F4801F04BF01430020B4F1FD0C88BF77
:1009C000BCF5E06F3FF6AFAEB5EB030C04BFB6EB82
:1009D000020C5FEA500C50F1000041EB045170BD75
:1009E0000EF0004E4EEA113114EB5C04C2BFD4EBA2
:1009F0000C0541EA045170BD41F480114FF0000E26
:100A0000013C90E645EA060E8DE60CEA135594EAA1
:100A10000C0F08BF95EA0C0F3FF43BAF94EA0C0FA4
:100A20000AD150EA01347FF434AF95EA0C0F7FF419
:100A300025AF104619462CE795EA0C0F06D152EA6D
:100A400003353FF4FDAE1046194622E750EA410651
:100A500018BF52EA43067FF4C5AE50EA41047FF462
:100A60000DAF52EA43057FF4EBAE12E74FF0FF3CC7
:100A700006E000BF4FF0010C02E000BF4FF0010C98
:100A80004DF804CD4FEA410C7FEA6C5C4FEA430C11
:100A900018BF7FEA6C5C1BD001B050EA410C0CBF60
:100AA00052EA430C91EA030F02BF90EA020F0020C2
:100AB000704710F1000F91EA030F58BF994208BF29
:100AC00090422CBFD8176FEAE37040F001007047E6
:100AD0004FEA410C7FEA6C5C02D150EA013C07D13D
:100AE0004FEA430C7FEA6C5CD6D152EA033CD3D088
:100AF0005DF8040B704700BF8446104662468C4682
:100B00001946634600E000BF01B5FFF7B7FF0028B4
:100B100048BF10F1000F01BD4DF808EDFFF7F4FFDD
:100B20000CBF012000205DF808FB00BF4DF808ED68
:100B3000FFF7EAFF34BF012000205DF808FB00BF8B
:100B40004DF808EDFFF7E0FF94BF012000205DF8AD
:100B500008FB00BF4DF808EDFFF7CEFF94BF012062
:100B600000205DF808FB00BF4DF808EDFFF7C4FF5B
:100B700034BF012000205DF808FB00BF4FEA410CA4
:100B80007FEA6C5C02D150EA013C0AD14FEA430C87
:100B90007FEA6C5C02D152EA033C02D14FF00000C4
:100BA00070474FF0010070474FEA410212F5001202
:100BB00015D211D56FF47873B3EB625212D94FEAA4
:100BC000C12343F0004343EA505311F0004F23FA8E
:100BD00002F018BF404270474FF00000704750EAE3
:100BE000013005D111F0004008BF6FF000407047A0
:100BF0004FF00000704700BF4FEA4102B2F1E043FE
:100C000024BFB3F5001CDCF1FE5C0DD901F0004CF3
:100C10004FEAC0024CEA5070B2F1004F40EB830043
:100C200008BF20F00100704711F0804F21D113F16F
:100C30003872BCBF01F00040704741F480114FEAA8
:100C40005252C2F11802C2F1200C10FA0CF320FA31
:100C500002F018BF40F001004FEAC1234FEAD3234E
:100C600003FA0CFC40EA0C0023FA02F34FEA4303B8
:100C7000CCE77FEA625307D150EA01331EBF4FF041
:100C8000FE4040F44000704701F0004040F0FE405C
:100C900040F40000704700BF4A0011D212F5001264
:100CA00011D20DD56FF47873B3EB62520ED44FEAC4
:100CB000C12343F0004343EA505323FA02F0704744
:100CC0004FF00000704750EA013002D14FF0FF3082
:100CD00070474FF0000070470348044B834202D036
:100CE000034B03B118477047CC010020CC01002012
:100CF000000000000548064B1B1AD90F01EBA301A9
:100D0000491002D0034B03B118477047CC010020B3
:100D1000CC0100200000000010B5064C237843B938
:100D2000FFF7DAFF044B13B10448AFF3008001234F
:100D3000237010BDCC01002000000000A87C00083A
:100D400008B5054B1BB105490548AFF30080BDE868
:100D50000840FFF7CFBF00BF00000000D001002017
:100D6000A87C00082DE9FF4757EC106B002F0C46BC
:100D70009146DDF830A019464FF0000203DA07F182
:100D800000431F462D220D9D0A7025F02005462D9B
:100D900004D0452D00D10134022100E0032103AB32
:100DA000019302AB009347EC106B5346224600F0D0
:100DB0001FFE472D80461AD119F0010F0ED000EB0F
:100DC00004090022002330463946FFF7A5FE08B18A
:100DD000CDF80C903022039B4B451ED3039B0E9AFB
:100DE000A3EB08034046136004B0BDE8F087462D2E
:100DF00000EB0409E5D10378302B0AD1002200234F
:100E000030463946FFF788FE18B9C4F10104CAF824
:100E10000040DAF800309944D3E7591C03911A7066
:100E2000D9E7F7B50029BABF49422D232B23092959
:100E3000027043702ADD0DF10704871CA6460A26BE
:100E4000A446B1FBF6F506FB15123032632904F116
:100E5000FF340CF8012C2946F2DC3031ACF10202EF
:100E600004F8011C411C144672450AD30DF1090314
:100E7000A3EB0C03A64538BF00233B44181A03B06C
:100E8000F0BD12F8013B01F8013FEDE730233031AE
:100E90008370C170031DF1E72DE9F04F8FB00C4650
:100EA000DDF8608016461F46054600F0C9FC036861
:100EB00007931846FFF7CCF900230C93D8F80030BD
:100EC00094F818A0D4F800B00890073323F0070373
:100ED000B3EC027B8DED047BC8F80030DDE90483C0
:100EE00023F0004984ED127B9A4B4FF0FF324046CD
:100EF0004946FFF743FE70BB964B4FF0FF3240462A
:100F00004946FFF71DFE30BBDDE904010022002346
:100F1000FFF70CFE10B12D2384F843308E4A8F4B1F
:100F2000BAF1470F8CBF90469846032323612BF0FC
:100F3000040323604FF00009009733460DAA2146B1
:100F4000284600F0CDF9013040F08C804FF0FF30A2
:100F50000FB0BDE8F08FDDE9042310461946FFF716
:100F60000DFE40B1059B7E4A002BBCBF2D2384F8AB
:100F700043307C4BD4E763685A1C0AF0DF093BD14D
:100F8000062363604BF480620023226003930CAB62
:100F9000CDE901A30BAB009361689DED040B0DF14E
:100FA0002B032846FFF7DEFEB9F1470F0B99804669
:100FB00029D1C81C02DB63688B4241DAAAF1020A1C
:100FC0005FFA8AFA0139524604F150000B91FFF79B
:100FD00028FF0C9A1318012A8146236102DC22683B
:100FE000D20701D5013323619DF82B30002BA3D00C
:100FF0002D2384F843309FE7B9F1470FC2D1002B6E
:10100000C0D10123BDE7BAF1650FDBD9BAF1660F94
:1010100018D1002963680BDD216113B92268D0075C
:1010200002D501330B442361A1654FF00009DBE7D2
:1010300013B92268D20701D50233F4E70123F2E79E
:101040004FF0670A0C9B8B4205DC23682161D807AF
:10105000EAD54B1CE7E70029D4BFC1F10202012207
:101060001344E0E723685A0507D423694246314612
:101070002846B847013028D168E7BAF1650F40F239
:10108000DB80D4E9120100220023FFF745FD90B375
:10109000354A012331462846B84701303FF456AF60
:1010A000DDE90B38434502DB2368D8070DD5DDE9C0
:1010B000072331462846B84701303FF447AF4FF089
:1010C000000908F1FF38C84509DC23689B0700F1D7
:1010D0000481E0680D9B9842B8BF184638E70123A9
:1010E00004F11A0231462846B84701303FF42EAFCA
:1010F00009F10109E7E70B9B834237DC1A4A012318
:1011000031462846B84701303FF420AFDDE90B39BE
:1011100059EA030302D12368D907D6D5DDE90723AD
:1011200031462846B84701303FF410AF4FF0000A6F
:101130000B9B5B42534501DC4B4697E7012304F1CF
:101140001A0231462846B84701303FF4FFAE0AF193
:10115000010AEDE7FFFFEF7FE47C0008E07C000878
:10116000EC7C0008E87C0008F07C0008A36DDDF84A
:1011700030B05B45A8BF5B46002B049337DC4FF0D3
:10118000000904F11A02049BD4F858A0002BACBF4C
:10119000AAEB030353464B4531DC0B9B9B453ADCE2
:1011A0002368DA0737D40B9BABEB0309ABEB0A03DD
:1011B0009945A8BF9946B9F1000F34DC4FF00008FB
:1011C0000B9BB9F1000FABEB0303A8BFA3EB090323
:1011D00043457FF77AAF012304F11A0231462846CE
:1011E000B84701303FF4B2AE08F10108E8E7049BCC
:1011F000424631462846B8470130C0D1A6E6012311
:10120000314628460992B84701303FF49FAE099A0B
:1012100009F10109B7E7DDE9072331462846B84758
:101220000130C0D192E64B4608EB0A02314628460F
:10123000B8470130C2D189E6DDF830A0BAF1010F1C
:1012400001DCDB0735D50123424631462846B84745
:1012500001303FF47BAEDDE9072331462846B8472D
:1012600001303FF473AED4E91201002200230AF1E9
:10127000FF3AFFF751FCC8B9534608F10102314665
:101280002846B84701300DD160E6012304F11A0267
:1012900031462846B84701303FF458AE08F10108FE
:1012A000D045F2DB4B4604F15002E0E64FF0000877
:1012B000F6E701234246E2E7012304F11902314631
:1012C0002846B84701303FF441AE08F10108E36811
:1012D0000D995B1A4345EFDCFBE64FF00008F6E79B
:1012E0002DE9F047914698468A680B69089E93421B
:1012F000B8BF1346C9F8003091F8432007460C46A2
:1013000012B10133C9F800302368990642BFD9F8F9
:1013100000300233C9F80030256815F0060507D102
:1013200004F1190AE368D9F800209B1AAB4229DCC2
:1013300094F843302268003B18BF012392062ED454
:1013400004F1430241463846B047013021D02368BA
:10135000A168226903F00603042B01BFE568D9F8F0
:101360000030ED1A25EAE57518BF00258B1A2B44CD
:101370009142C8BF1D464FF000091A344D451AD19D
:10138000002008E00123524641463846B04701306C
:1013900003D14FF0FF30BDE8F0870135C2E7E11817
:1013A0005A1C302081F84300224494F8451082F8FA
:1013B00043100233C4E70123224641463846B04772
:1013C0000130E6D009F10109D8E700002DE9F0432A
:1013D00098460B7E85B0782B174606460C9A0C462D
:1013E00009D8622B01F1430108D8002B00F0DC8002
:1013F000582B00F0BD8004F1420539E0A3F16300F1
:101400001528F8D801A555F820F000BF651400088C
:1014100079140008F7130008F7130008F713000801
:10142000F713000879140008F7130008F7130008F1
:10143000F7130008F713000889150008A514000821
:1014400037150008F7130008F7130008B115000856
:10145000F7130008A5140008F7130008F713000895
:101460003F1500081368191D1B68116004F142053F
:1014700084F842300123A8E013682568181D106025
:10148000280601D51B6803E06A06FBD5B3F90030D6
:10149000002B03DA2D225B4284F84320DFF878C169
:1014A0000A2213E02568106815F0800F50F8043BFD
:1014B00002D16D0648BF9BB21060227EDFF858C192
:1014C0006F2A5DD10822002084F843006568A5607A
:1014D000002D05DB20681D4320F00400206051D062
:1014E0000D46B3FBF2F002FB103E9A421CF80EE0F0
:1014F00005F801ED0346F4D9082A0BD12368DA0771
:1015000008D5236962689A42DEBF302305F8013CA2
:1015100005F1FF35491B2161CDF800803B4603AA48
:1015200021463046FFF7DCFE013053D14FF0FF304B
:1015300005B0BDE8F083236843F020032360DFF8A3
:10154000DCC0782384F845302068156810F0800FDF
:1015500055F8043B03D110F0400F18BF9BB2156043
:10156000C50744BF40F02000206023B11022AAE745
:10157000DFF8A4C0E6E7226822F020022260F5E747
:101580000A22A0E70D46B7E71368D4F800C06069E7
:101590001D1D15601CF0800F1B6801D0186003E052
:1015A0001CF0400FFAD01880002323610D46B3E7EA
:1015B0001368191D11601D68626800212846FEF736
:1015C000F7FD08B1401B606063682361002384F865
:1015D0004330A1E723692A4639463046C0470130E7
:1015E000A4D023689B0714D4E068039B9842B8BF3B
:1015F00018469DE7012304F1190239463046C047D9
:10160000013093D00135E36803995B1AAB42F1DCFA
:10161000EAE70025F7E700BFF27C0008037D000839
:10162000002310B50446C0E90033C0E904338360E9
:1016300081814366C2818361194608225C3000F0D3
:10164000F6F80D4B63620D4BA3620D4BE3620D4B3D
:1016500023630D4B24629C4206D003F1680294423E
:1016600002D0D0339C4205D104F15800BDE81040AF
:1016700000F030B910BD00BFA7170008C917000857
:101680000118000827180008E8010020024A034951
:10169000034800F06BB800BF0000002029320008AA
:1016A0001000002041680C4B994210B5044601D04F
:1016B00001F0BAFDA168094B994202D0204601F021
:1016C000B3FDE168064B994204D02046BDE81040C6
:1016D00001F0AABD10BD00BFE801002050020020AB
:1016E000B802002010B50A4B0A4A1A600A480022C4
:1016F0000421FFF795FF094801220921FFF790FF18
:10170000BDE81040064802221221FFF789BF00BF42
:10171000200300208D160008E80100205002002060
:10172000B8020020014800F0D6B800BF290300200D
:10173000014800F0D1B800BF2903002010B50446CD
:10174000FFF7F0FF236A1BB1BDE81040FFF7F0BFC1
:10175000044B2362044B1B68002BF5D1FFF7C2FF3B
:10176000F2E700BFA5160008200300202DE9F8438A
:101770008046894614460026D4E90175013F05D507
:101780002468002CF8D13046BDE8F883AB89012BE2
:1017900007D9B5F90E30013303D029464046C84772
:1017A00006436835EAE710B50C46B1F90E1000F0B3
:1017B0006DF80028ABBF636DA3891B1823F4805319
:1017C000ACBF6365A38110BD2DE9F0411F468B8935
:1017D000DB0505460C46164605D5B1F90E10022369
:1017E000002200F041F8A389B4F90E1023F48053CD
:1017F000A38132463B462846BDE8F04100F058B888
:1018000010B50C46B1F90E1000F02EF8B4F90C30FA
:10181000421C0BBF23F4805343F48053A381A38164
:1018200018BF606510BDB1F90E1000F00DB802448C
:101830000346934200D1704703F8011BF9E700000B
:10184000004870474C01002038B5064C002305467F
:101850000846236002F07AF8431C02D1236803B1E2
:101860002B6038BD2403002038B5074C05460846D8
:101870001146002222601A4602F090F8431C02D161
:10188000236803B12B6038BD2403002038B5074C12
:10189000054608461146002222601A4602F086F8E4
:1018A000431C02D1236803B12B6038BD2403002000
:1018B00038B5074C054608461146002222601A46F4
:1018C00002F08AF8431C02D1236803B12B6038BDB3
:1018D000240300207047704770472DE9F74F0369D4
:1018E0000C69A34280467EDB013C01F11407A30092
:1018F00000F11405009305EB8403019357F824309D
:1019000055F8242001339A4207EB8409B2FBF3F621
:101910002ED34FF0000ABC46AE46D3465CF8043BDB
:1019200098B206FB00A0020C1B0C06FB0323DEF89A
:10193000002080B292B2121A5A44DEF800004FEA38
:10194000134A9BB2C3EB224303EB104392B242EA29
:101950000342E1454EF8042B4FEA234BDED2009BB5
:10196000EB582BB9019B1A1F954230D3C8F8104091
:10197000404601F0E7F9002825DB01362946002022
:1019800057F8042BD1F800C01FFA82FE1FFA8CF31F
:10199000A3EB0E030344120CC2EB234202EB1C42E6
:1019A0009BB243EA0243B94541F8043B4FEA224067
:1019B000E6D255F8242005EB840322B9043B9D426E
:1019C0000BD3C8F81040304603B0BDE8F08F136861
:1019D000002BCBD1043A013CC6E71A68002AF0D1AB
:1019E000043B013CEBE70020EEE7000000000000B4
:1019F0002DE9F04F99B08DED0E0B0C92C269229C2F
:101A00000A9157EC106B8146139382B9102000F0B5
:101A100011FE0246C9F81C0020B9A94BEF21A948C4
:101A200001F048FC0023C0E901330360C360116882
:101A300059B152684A60012393408B60484600F0D8
:101A4000E9FED9F81C3000221A60B7F10008B5BFD2
:101A500001230023236023609B4BBCBF28F0004878
:101A6000CDF83C8033EA08031AD1139AC8F313085F
:101A700042F20F7358EA0608136000F06185239B59
:101A800053B9924B21E0924B00930833239A136091
:101A9000009819B0BDE8F08F8C4B00930333F5E745
:101AA0009DED0E7B002251EC170B00238DED067B84
:101AB000FFF732F8824650B1139A01231360239B3B
:101AC00013B1239A834B1360834B0093E0E79DEDA2
:101AD000060B16AA17A9484601F058FA5FEA1854EF
:101AE000169D019079D0079BCDF850A0C3F3130346
:101AF000DDE9060143F07F5343F44013A4F2FF34C1
:101B000019460022754BFEF7E7FB67A3D3E90023D4
:101B1000FEF79AFD66A3D3E90023FEF7DFFB064636
:101B200020460F46FEF726FD63A3D3E90023FEF708
:101B30008BFD02460B4630463946FEF7CFFB064684
:101B40000F46FFF731F80022804600233046394621
:101B5000FEF7ECFF48B14046FEF70CFD32463B462F
:101B6000FEF7DAFF08B908F1FF38B8F1160F51D8BF
:101B70005B4B03EBC803D3E90023DDE90601FEF765
:101B8000D5FF002848D008F1FF38002312932D1B01
:101B90006B1E089343BF0023C5F10107089300277C
:101BA000B8F1000F3ADB089BCDF83480434408932A
:101BB000002309930A9B092B62D8052BC4BF043B61
:101BC0000A930A9BA3F10203CCBF00240124032B38
:101BD00062D8DFE803F05153362B179C2C4404F2F3
:101BE0003243202BC1BFC3F1400308FA03F804F2CB
:101BF000124326FA03F3D6BFC3F1200348EA0300D9
:101C000006FA03F0FEF7A6FC0122A1F1F873013CED
:101C1000149275E70123B9E71290B8E7C8F1000301
:101C200009930023A7EB08070D93C3E701230B9348
:101C30000C9B434405930133012B0493B8BF01234C
:101C400006E001230B930C9B002B28DDCDE9043328
:101C5000D9F81C000021042202F114059D4243D949
:101C60004160484600F098FD009000283FD11D4B90
:101C7000024640F2AF11D2E60023E3E70023D6E7A5
:101C800001240023CDE90A344FF0FF330022CDE9CF
:101C900004330C921223DBE701230B93F4E70123B7
:101CA000CDE904330C93D3E761436F63A787D23F39
:101CB000B3C8608B288AC63FFB799F501344D33F3B
:101CC000217D0008387D00080000F07F1D7D0008A0
:101CD000147D0008F17C0008F07C00080000F83F4B
:101CE000E87E0008917D000801315200B4E7D9F880
:101CF0001C30009A1A60049B0E2B75D8002C73D0F0
:101D0000B8F1000F40F3C4809F4B08F00F0203EBC3
:101D1000C20318F4807FD3E900AB4FEA281500F026
:101D2000A3809A4BDDE90601D3E90823FEF7B6FD4F
:101D3000CDE9020105F00F050324944E002D40F07B
:101D4000998052465B46DDE90201FEF7A7FD824617
:101D50008B46129B002B00F0C3808D4B0022504617
:101D60005946FEF7E3FE002800F0BA80049B002BE2
:101D700000F0B680059B002B36DD08F1FF3302939F
:101D800050465946834B0022FEF75EFC059E824674
:101D90008B4601342046FEF7EDFB52465B46FEF7CC
:101DA00053FC7D4B0022FEF799FA0446A1F15075D1
:101DB000CDE91045002E40F09780784B0022504628
:101DC0005946FEF789FA22462B4682468B46FEF795
:101DD000CBFE002840F0BD82224605F1004350466C
:101DE0005946FEF7A3FE20BB179B002BC0F28D8146
:101DF000B8F10E0F00F38981634B03EBC803D3E9FD
:101E000000AB0C9B002B80F21B81049B002B00F38A
:101E100017810ED1614B002250465946FEF714FC43
:101E200002460B46DDE90601FEF78AFE002800F0B7
:101E3000938200252C460C9B009EDB430293274691
:101E400000242946484600F0E5FC002F00F0EE8013
:101E50002CB1BC4203D02146484600F0DBFC394699
:101E6000484600F0D7FCE1E09DED067B02248DEDB5
:101E7000027B62E7E90708D550465946D6E90023B8
:101E8000FEF7E2FB013482468B466D10083655E7BB
:101E900022D0C8F100053C4B3C4E05F00F0203EB8D
:101EA000C203D3E90023DDE90601FEF7CDFB2D11C6
:101EB00082468B460224002D3FF44BAFEA0708D53B
:101EC00050465946D6E90023FEF7BEFB0134824650
:101ED0008B466D100836EEE7DDE906AB022438E7E5
:101EE000049ECDF8088055E7274B03EBC60353E962
:101EF00002010B9B002B55D002460B4600202849BF
:101F0000FEF7CCFCDDE91023FEF7E6F9009BCDE9F6
:101F100010019D191E4659465046FEF745FE00F138
:101F20003004FEF727FB02460B4650465946FEF7A3
:101F3000D3F9DDE9102306F8014B82468B46FEF704
:101F4000F5FD002872D152465B4611490020FEF78C
:101F5000C3F9DDE91023FEF7E9FD002840F0B68063
:101F6000AE423FF441AFDDE910010A4B0022FEF71B
:101F70006BFB084BCDE91001002250465946FEF795
:101F800063FB82468B46C6E7E87E0008C07E0008F9
:101F90000000F03F0000244000001C4000001440FE
:101FA0000000E03FDDE91023FEF74EFB009B009CA4
:101FB000CDE910013344159359465046FEF7F4FD20
:101FC00000F13005FEF7D6FA0B4602465946504658
:101FD000FEF782F904F8015B159B9C4282468B4612
:101FE00027D1009B0022DDE910011E44AA4BFEF719
:101FF00075F902460B4650465946FEF7B5FD0028D6
:1020000064D1DDE91023A4490020FEF765F90246FA
:102010000B4650465946FEF789FD00283FF4E4AED2
:10202000334616F8012D302AFAD01E46DDF8088016
:102030003AE09A4B0022FEF707FB82468B46BBE74D
:10204000009E52465B46DDE90601FEF727FCFEF7DF
:10205000ABFD0746FEF78EFA52465B46FEF7F4FAF2
:1020600002460B46DDE90601FEF736F907F1300CB2
:10207000009C06F801CBA6EB040C049C64450246C8
:102080000B4633D1FEF72AF952465B4604460D460D
:10209000FEF76AFDC0B952465B4620462946FEF768
:1020A0003BFD08B1FB070FD40199484600F0B2FB95
:1020B0000023139A337008F101031360239B002B54
:1020C0003FF4E6AC1E60E3E4CDF8088033461E46DC
:1020D00013F8012D392A06D1009A9A42F7D1029AB3
:1020E00001320292302201321A709FE76B4B0022BC
:1020F000FEF7AAFA02460B46CDE90623002200238A
:10210000FEF70AFD00289CD0CEE70B9A002A00F0CB
:10211000DF800A9A012A00F3C380149A002A00F093
:10212000B78003F23343099D3E46089A01211A44C1
:1021300048461F44089200F06BFC044656B1089BC9
:10214000002B07DDB342089AA8BF3346FF1AF61AE0
:10215000D31A0893099B0BB30B9B002B00F0BF8095
:10216000002D00F0B98021462A46484600F01CFDAB
:10217000019A01460446484600F060FC01998246F7
:10218000484600F047FB099B5B1B099300F0AA80BF
:10219000099A5146484600F007FD01900121484642
:1021A00000F036FC0D9B0546002B00F0D0811A464E
:1021B0000146484600F0F8FC0A9B012B054600F357
:1021C00099800E9B002B40F090800F9BC3F313036C
:1021D000002B40F08A800F9B23F000431B0D1B0552
:1021E000002B00F08580089B0133013708934FF0E6
:1021F000010A0D9B002B00F0B0812B6905EB8303D6
:10220000186900F0B9FBC0F12000089B184410F0D9
:102210001F0076D01B2870DCC0F11C000744064468
:1022200003440893002F05DD01993A46484600F023
:1022300017FD0190089B002B05DD29461A464846EC
:1022400000F00EFD0546129B002B5FD00198294639
:1022500000F078FD002859DA08F1FF330293019964
:1022600000230A22484600F0F7FA0B9B0190002B4E
:1022700000F07581002321460A22484600F0ECFA5E
:10228000059B002B044671DC0A9B022B47DC6DE0AA
:10229000169BC3F1360346E70000E03F00002440F0
:1022A000049B5D1E099BAB4208DB5D1B049B002B5E
:1022B000BFF63AAF049BFE1A002336E7099B0D9A3E
:1022C0000995EB1A1A440D92049B3E4600252CE713
:1022D000099D0B9C3E4631E7DDF804A058E7099ABA
:1022E000019957E7CDF804A058E74FF0000A80E7BE
:1022F0009A467EE74FF0000A7FE71C2892D0C0F193
:1023000020001C30089B0744064489E7049BCDF855
:102310000880002B24DC05930A9B022B22DD059B01
:10232000002B7FF488AD2946059B0522484600F026
:1023300093FA01460546019800F004FD00287FF756
:102340007AAD009E312306F8013B029B01330293D4
:1023500075E535462C46F4E7049DCDF80880F9E78D
:10236000049B05930B9B002B00F0FD80002E05DDE8
:1023700021463246484600F073FC0446BAF1000F8D
:1023800058D06168484600F007FA064628B9814BE4
:10239000024640F2EF21FFF742BB2269023292006F
:1023A00004F10C010C3000F077FF01223146484661
:1023B00000F056FC0746009B009A03F10108059BBC
:1023C000134406930E9B03F00103089329460198DA
:1023D000FFF783FA2146049000F1300B019800F0DA
:1023E000B1FC3A4605902946484600F0C7FCC26851
:1023F00008F1FF3A0646FAB90146019800F0A2FC3E
:10240000024631464846099200F004FADDE9092304
:1024100042EA0301089B194346460FD1BBF1390F2D
:1024200028D0059B002B02DD049B03F1310B8AF8B9
:1024300000B006E52746BEE70122E2E7059B002B38
:1024400004DB0A990B4308990B4320D1002AEEDDE7
:1024500001990122484600F003FC2946019000F052
:1024600071FC002803DCE2D11BF0010FDFD0BBF1CF
:10247000390FD9D139238AF8003033461E46013B43
:1024800016F8012C392A52D001321A70D9E4002AE8
:1024900007DDBBF1390FEDD00BF101038AF80030F5
:1024A000CFE4069B08F801BC43452AD001990023DC
:1024B0000A22484600F0D0F9BC4201904FF00003D8
:1024C0004FF00A022146484606D100F0C5F90446FD
:1024D000074608F1010879E700F0BEF939460446DD
:1024E00000230A22484600F0B7F90746F1E7059BAA
:1024F0005E1E002B009BD8BF00265A1C27461644A0
:10250000002401990122484600F0AAFB29460190C7
:1025100000F018FC0028B0DC02D11BF0010FACD198
:1025200033461E4613F8012D302AFAD089E4009A6A
:102530009A42A3D1029B013302933123137080E4AA
:10254000239B002B7FF49FAA134BFFF7BEBA0A9B75
:10255000012B7FF736AEDDF834A0012055E6059B50
:10256000002B7FF7D9AE009E01982946FFF7B5F9F9
:1025700000F1300B009B06F801BBF21A059B934259
:10258000B5DD019900230A22484600F065F9019063
:10259000EAE700BF917D0008147D000837B50029E7
:1025A00044D051F8043C0190002BA1F10404B8BFC1
:1025B000E41800F0E5F81E4A0198136833B9636027
:1025C000146003B0BDE8304000F0E0B8A34208D981
:1025D000256861198B4201BF19685B684919216040
:1025E000EDE71A465B680BB1A342FAD9116855189A
:1025F000A5420BD1246821445418A3421160E0D1B4
:102600001C685B6853600C441460DAE702D90C2341
:102610000360D6E7256861198B4204BF19685B68BF
:10262000636004BF491921605460CAE703B030BD3C
:1026300030030020024B0146186800F025B800BFA7
:102640000C00002070B50F4C0E462168054611B9EC
:1026500000F012FE20603146284600F00DFE431CBB
:1026600003D14FF0FF34204670BDC41C24F0030496
:10267000A042F8D0211A284600F0FEFD0130F2D128
:10268000EFE700BF2C0300202DE9F843CD1C25F017
:10269000030508350C2D38BF0C25002D064601DB3F
:1026A000A94204D90C2333600020BDE8F883334FDE
:1026B00000F066F83B681C463CBB29463046FFF7F5
:1026C000C1FF431C044656D13C68A046B8F1000F38
:1026D00040D1002C49D023684146304604EB030921
:1026E00000F0CAFD814540D121686D1A2946304667
:1026F000FFF7A8FF013038D023682B4423603B68E4
:102700005A685ABBC7F800800EE02268521B1ED4DC
:102710000B2A16D96119A342256018BF5960636856
:1027200008BF396062514B60304600F02FF804F169
:102730000B00231D20F00700C21A1CBF1B1AA35058
:10274000B3E76268A3420CBF3A605A60ECE72346E5
:102750006468B1E74446D8F80480B7E71A465B6876
:10276000A342FBD100235360DEE70C2333603046E5
:1027700000F00CF898E70560D6E700BF30030020B2
:102780000148FFF7A8B800BF280300200148FFF761
:10279000A3B800BF2803002070B5C46905460E46E3
:1027A00084B91020FFF746FF0446E86128B90246C5
:1027B000164B17486B2100F07DFD0023C0E9013363
:1027C0000360C360E36853B921220421284600F066
:1027D0008FFDEB69E060DB680BB9002070BD53F83A
:1027E000260030B1026843F826200023C0E90333F5
:1027F000F4E7012101FA06F4621D9200284600F078
:1028000077FD0028E9D0C0E90164EEE7217D0008EA
:10281000A27D000870B5C46906460D4674B9102043
:10282000FFF708FF0246F06120B9094B09488F21E4
:1028300000F040FDC0E901440460C4603DB1F369AB
:102840006A68DB6853F82210296043F8225070BD93
:10285000217D0008A27D00082DE9F0410D690746A1
:102860000C461E4601F1140C0020DCF8003099B231
:1028700002FB01611E0C0B0C02FB063389B2013016
:1028800001EB034185424CF8041B4FEA1346ECDC94
:102890000EB3A368AB4219DC616838460131FFF71B
:1028A0007BFF804628B902460C4B0D48BA2100F048
:1028B00001FD2269023204F10C0192000C3000F09B
:1028C000EBFC21463846FFF7A5FF444604EB8503A1
:1028D00001355E6125612046BDE8F081917D0008EB
:1028E000A27D00082DE9F843884614461F460922B8
:1028F0000833064693FBF2F3002101229A4209DBDA
:102900003046FFF749FF40B90246194B1948D32119
:1029100000F0D0FC52000131F0E7089B4361092C24
:102920004FF00103036108DC08F10A050924641B68
:102930002B199F4212DCBDE8F88308F10905A9466E
:10294000A04419F8013B0146303B0A223046FFF70C
:1029500083FFC145F5D12544083DE8E715F8013B63
:102960000146303B0A223046FFF776FFE0E700BF22
:10297000917D0008A27D0008B0F5803F034636BF78
:10298000030400201020B3F1807F3CBF1B020830FD
:10299000B3F1805F3CBF1B010430B3F1804F3CBFFB
:1029A0009B000230002B04DB5B0001D50130704737
:1029B00020207047036813F0070201460BD0DA07A6
:1029C00022D4980749BF5B089B0801200B605CBFBD
:1029D0000B600220704798B2A0B91B0C1020DAB22D
:1029E0000AB908301B0A1A0704BF1B0904309A07EA
:1029F00004BF9B080230DA0702D45B0806D001301E
:102A00000B6070471046EAE70020704720207047AF
:102A100010B50C460121FFF7BFFE024628B9054B51
:102A2000054840F2451100F045FC01234461036173
:102A300010BD00BF917D0008A27D00082DE9F04F78
:102A4000D1F81080D2F81090C84585B00E461446D3
:102A500004DB4B460C46C14616469846A36861689F
:102A600009EB0807BB42B8BF0131FFF795FE30B94B
:102A700002464B4B4B484FF4B17100F01BFC00F188
:102A8000140505EB870B2B4600225B4522D306F18C
:102A9000140101EB880304F1140C0CEB890C029374
:102AA00004F1150363458CBF002301230093ACEBB5
:102AB0000403153B9B080193029B03918B420CD8A6
:102AC000002F03DD5BF8043D002B67D0076105B0E4
:102AD000BDE8F08F43F8042BD7E7B1F800A0BAF1B6
:102AE000000F28D004F11408A9464FF0000E58F842
:102AF000042BD9F8003096B29BB20AFB0633D9F802
:102B00000060120C360C73440AFB026606EB134697
:102B10009BB243EA0643C44549F8043B4FEA164ECC
:102B2000E5D8009A019B002A4FEA830308BF0023DF
:102B30002B44C3F804E0039BB3F802E00431BEF178
:102B4000000F29D02B6804F114069846A9464FF0CF
:102B5000000A32880EFB02A202EB18429BB243EA43
:102B6000024349F8043B56F8043BD9F800804FEA89
:102B7000134A1FFA88F30EFB0A3303EB1243B445E2
:102B80004FEA134AE5D8009E019A002E4FEA8202CE
:102B900008BF00222A44536004358DE7013F8FE7C8
:102BA000917D0008A27D00082DE9F843174612F038
:102BB000030280460D4607D0264C013A002354F804
:102BC0002220FFF749FE0546BF103FD0D8F81C4031
:102BD00094B91020FFF72EFD0446C8F81C0030B948
:102BE00002461D4B1D4840F2B31100F063FB002369
:102BF000C0E901330360C360A66846B940F27121A1
:102C00004046FFF705FF0023A060064603602C4600
:102C10004FF0000907F001037F1053B129463246F7
:102C20004046FFF70BFF214605464046FFF7F2FD01
:102C300067B1306838B9324631464046FFF7FEFE8C
:102C40003060C0F8009006462C46E3E72846BDE811
:102C5000F88300BFB47E0008217D0008A27D000833
:102C60002DE9F84F0C4649682669A36806EB621601
:102C7000074691464FEA621A06F1010843450BDB0D
:102C80003846FFF789FD054648B902462B4B2C48CC
:102C90004FF4EF7100F00EFB01315B00EEE700F145
:102CA000140100230A461846534539DB20692AEAF5
:102CB000EA7A01EB8A0104F1140319F01F098C462A
:102CC00003EB800030D0C9F1200A4FF0000E1A68E3
:102CD000E34602FA09F242EA0E02CBF8002053F86A
:102CE000042B98420CF1040C22FA0AFEEFD8031BC5
:102CF000153B23F0030304F11502904238BF002373
:102D00001944C1F804E0BEF1000F00D1B0463846C6
:102D1000C5F810802146FFF77DFD2846BDE8F88FF5
:102D200042F8040B0133BFE753F8041BCCF8001042
:102D300098420CF1040CF7D8E8E700BF917D000839
:102D4000A27D000803690A699B1A30B50ED11430C0
:102D5000143100EB820401EB820154F8045D51F858
:102D6000042D954204D006D24FF0FF33184630BDF3
:102D7000A042F2D3FAE70123F8E700002DE9F74F6C
:102D80008A460646114650461446FFF7DBFF051EED
:102D900012D129463046FFF7FFFC024628B9414BC5
:102DA00040F23721404800F085FA0123C0E904359C
:102DB000104603B0BDE8F08FBCBF5346A246304674
:102DC000DAF80410BABF1C4601250025FFF7E4FC21
:102DD000024618B9334B40F24521E3E7DAF81070A8
:102DE0002669C5600AF1140904F1140E00F11405F6
:102DF0000AF1100309EB87080EEB86060193AB4638
:102E00004FF0000C019B5EF8040B53F804AF0193E4
:102E10001FFA8AF183B2CB1A000C6344C0EB1A404C
:102E200000EB23409BB243EA004376454BF8043B5A
:102E30004FEA204CE6D8331B153B153423F003032F
:102E4000A64238BF0023E8184B441C1D0430264618
:102E5000A5EB090546450ED308F10301091B21F036
:102E600003010133984538BF0021014451F8043D66
:102E7000ABB117619CE706EB050E56F8041BE24662
:102E80004FEA11491CFA81FC514409EB2C4989B2E3
:102E900041EA09414FEA294CCEF80010DAE7013F38
:102EA000E4E700BF917D0008A27D000882B08DEDAF
:102EB000000B019A0F4B1340A3F15073002B08DC59
:102EC0005B42B3F1A07F4FEA235204DA4FF40023B0
:102ED0001341002208E0A2F114031E2BDABF4FF0C9
:102EE0000042DA40012200231946104641EC100B43
:102EF00002B070470000F07FF8B5056900F11406D4
:102F000006EB85052F1F55F8044C2046FFF734FDCE
:102F1000C0F120030A280B6016DCC0F10B0C24FA68
:102F20000CF1BE4241F07F5334BF55F8081C00211C
:102F3000153004FA00F021FA0CF143F44013014378
:102F40000A4643EC102BF8BDBE423ABF55F8081CA8
:102F5000A5F1080700210B3812D0C0F1200521FA95
:102F600005F384401C43B74244F07F538CBF57F8AD
:102F7000044C00248140EC4043F440132143DFE73C
:102F800044F07F5343F44013DAE700002DE9F743A0
:102F90000F46012159EC108B1646FFF7FDFB054645
:102FA00030B90246234B244840F20F3100F082F939
:102FB000C9F30A54C9F313030CB143F4801301930A
:102FC000B8F1000323D068460093FFF7F3FC0099A3
:102FD000D8B1019AC0F1200302FA03F30B43C240B7
:102FE0006B610192019BAB61002B0CBF012202229D
:102FF0002A61A4B1A4F2334404443C60C0F135001A
:103000003060284603B0BDE8F0836961EAE701A8B3
:10301000FFF7D0FC019B6B6120300122E8E705EB54
:103020008203A0F2324038601869FFF7A5FCC0EBBC
:103030004210E5E7917D0008A27D0008F7B50E4635
:1030400069460746FFF758FF01A9304655EC104B7B
:10305000B0EE407AF0EE607AFFF74EFF33693A69DE
:10306000D21ADDE900369B1B03EB4213002BD4BFC1
:1030700010EE902A17EE902A51EC100BD6BFC3EB3E
:10308000033302EB035502EB03510B46024629467C
:103090002046FDF703FC41EC100B03B0F0BD0139F5
:1030A00070B549111469013102F1140300EB81017B
:1030B00003EB8404051FA3420CD3A31A113B23F096
:1030C00003031132944238BF00231844002388427E
:1030D00005D370BD53F8046B45F8046FEBE740F877
:1030E000043BF4E700F1140200694B11984210B55B
:1030F00011DB0ADD11F01F0107D052F8234024FA3A
:1031000001F000FA01F18C420BD102EB83039342F0
:1031100003D8002010BD0346F7E753F8041D00292B
:10312000F5D00120F6E70000B1F90C202DE9F041BF
:10313000160705460C4651D44B68002B02DC0B6C7D
:10314000002B49DDE66A002E46D0002312F480529F
:103150002F682B6031D0626DA389590705D563684C
:10316000D21A636B0BB1236CD21A0023E66A216A70
:103170002846B047421CB4F90C3006D129681D29F5
:1031800045D8284ACA40D60741D500226260D904F2
:103190002269226004D5421C01D12B6803B9606505
:1031A000616B2F60C1B104F14403994202D02846FB
:1031B000FFF7F4F9002363630EE0216A0123284638
:1031C000B0470246501CC7D12B68002BC4D01D2B22
:1031D00001D0162B1AD12F6000201DE00F69002F9F
:1031E000FAD093070E6808BF4B690F6018BF002321
:1031F000A6EB07088B60B8F1000FEDDD216AA66A27
:1032000043463A462846B047002807DCA38943F0E6
:103210004003A3814FF0FF30BDE8F0810744A8EBE5
:103220000008E8E70100402038B50B6905460C4668
:1032300013B91D46284638BD18B1036A0BB9FEF70D
:103240007DFAB4F90C30002BF3D0626ED00704D4B1
:10325000990502D4A06DFEF73EFB28462146FFF7F4
:1032600063FF636EDA070546E4D4A3899B05E1D4C6
:10327000A06DFEF731FBDDE738B5064C00230546AF
:103280000846236000F09AFB431C02D1236803B177
:103290002B6038BD240300200A44914200F1FF3323
:1032A00000D1704710B511F8014B03F8014F91425E
:1032B000F9D110BD1FB51D46094B1B680646D868DD
:1032C00052B1084C0091CDE90142074933462A46E4
:1032D00000F042F800F052F8044C2246F2E700BF3A
:1032E0000C000020067E0008137E0008417E0008C6
:1032F00070B5A1FB026535B93146FFF7C5F9044643
:1033000028B9204670BD0C2303600024F9E732463B
:103310002946FEF78CFAF4E782B001B901A942B15F
:103320004BB113780B601278101E18BF012002B049
:1033300070471046FBE76FF00100F8E749B1FF2A3C
:1033400085BF8A2303600A704FF0FF3098BF0120C9
:1033500070470846704700000EB403B5014603AB42
:10336000054853F8042B0068019300F035F802B0CB
:103370005DF804EB03B070470C00002008B5062090
:1033800000F012FA012000F02FFB9368013B002BA4
:1033900010B4936007DA9469A34201DB0A2902D1D1
:1033A00010BC00F02DB91368581C10601970084645
:1033B00010BC7047F8B506460F461446D518AC4207
:1033C00001D1002007E014F8011B3A463046FFF710
:1033D000DCFF431CF3D1F8BD2DE9F04706469CB055
:1033E0000D4614461F4618B1036A0BB9FEF7A6F93D
:1033F0006B6ED90705D4AB899A0502D4A86DFEF788
:103400006AFAAB891B0701D52B699BB9294630465F
:1034100000F034F970B16B6EDE0704D54FF0FF3069
:103420001CB0BDE8F087AB899C05F7D4A86DFEF70A
:1034300053FAF3E70023099320238DF829300397EB
:1034400030236A4F8DF82A304FF0010823461A784E
:1034500099461AB1252A03F10103F8D1B9EB040A00
:103460000BD05346224629463046FFF7A3FF0130D2
:1034700000F0A380099A5244099299F80030002B79
:1034800000F09B8000224FF0FF33CDE9053209F1B7
:103490000109049207928DF853201A924C46052296
:1034A00014F8011B5148FCF783FE049AD0B9D006EA
:1034B00044BF20238DF85330110744BF2B238DF8D0
:1034C000533099F800302A2B13D007994B4600202F
:1034D0004FF00A0C1A78303A092A1C464AD9A8B18A
:1034E000079113E0C01B08FA00F010430490A146B6
:1034F000D4E7039B191D1B680391002BBBBF5B42E4
:1035000042F0020207930793B8BF049223782E2B50
:103510000AD163782A2B32D1039B1A1D1B680392B0
:1035200043EAE37302340593DFF8D0902178032255
:103530004846FCF73DFE38B1049BA0EB0900402251
:103540008240134301340493217829488DF82810D0
:103550000622FCF72DFE00283ED0264818BB039B10
:10356000073323F0070308330393099B0344013413
:1035700009936BE701330CFB01210120AAE700232B
:103580000593611C18464FF00A0C0A78303A092A54
:103590000C4603D9002BC7D00590C5E701310CFBC1
:1035A00000200123F1E703AB00932A46124B04A944
:1035B0003046FDF771FC431CD7D16B6ED90705D49B
:1035C000AB899A0502D4A86DFEF786F9AB895B0634
:1035D0003FF524AF099823E703AB00932A46064B37
:1035E00004A93046FDF7F2FEE5E700BF427E000881
:1035F0004C7E0008990E0008B5330008487E00088C
:10360000F8B505460F46144618B1036A0BB9FEF724
:1036100095F8A369A360A3891A0701D5236943B963
:103620002146284600F02AF818B14FF0FF36304600
:10363000F8BD23692068C01A6369834205DC21460E
:103640002846FFF7F1FD0028EFD1A368013BA360F6
:1036500023685A1C22601F70636901308342FEB2E6
:1036600004D0A389DB07E2D50A2EE0D12146284603
:10367000FFF7DAFD0028DAD0D7E7000038B5284B8D
:10368000054618680C4618B1036A0BB9FEF756F8E0
:10369000B4F90C30190720D4DA0607D409222A60BD
:1036A00043F04003A3814FF0FF3031E0580711D5BC
:1036B000616B41B104F14403994202D02846FEF700
:1036C0006DFF002363630022A38962602269226088
:1036D00023F0240343F00803A38123694BB9A38992
:1036E00003F42073B3F5007F03D02146284600F091
:1036F000C9F8B4F90C3013F001020AD00022A2601C
:1037000062695242A261226942B913F08000C7D1B6
:1037100038BD990758BF6269A260F4E70020F7E757
:103720000C000020884210B501EB020402D984424B
:10373000234607D8431EA14207D011F8012B03F8F6
:10374000012FF8E70244824200D110BD13F8011D99
:1037500002F8011DF7E71F2938B505460C4604D9C4
:10376000162303604FF0FF3038BDC26B12B152F820
:1037700021304BB9284600F031F822460146284650
:10378000BDE8384000F018B8012B0AD0591C03D10D
:10379000162303600120E7E7002142F824102046A9
:1037A00098470020E0E70000024B01461868FFF749
:1037B000D2BF00BF0C00002038B5074C00230546DF
:1037C00008461146236000F0E1F8431C02D123684B
:1037D00003B12B6038BD00BF2403002000F0C6B841
:1037E0002DE9F041074615460C4621B9BDE8F041E8
:1037F0001146FEF749BF2AB9FEF7D0FE2C462046F7
:10380000BDE8F08100F09AF88542064602D8B5EB93
:10381000500FF4D829463846FEF736FF804608B9DF
:103820004446ECE7B5422A46214628BF3246FFF718
:1038300033FD21463846FEF7B1FEF1E770B50E467E
:10384000B1F90E10002996B014461D460ADAB28965
:1038500012F0800213D14FF4806100202A602160B1
:1038600016B070BD6A4600F047F80028EFDB019AF9
:1038700002F47042A2F500535A425A41EBE700228B
:103880004021EAE78B8973B59E0705460C4607D5AC
:1038900004F14703236023610123636102B070BD1B
:1038A00001AB6A46FFF7CAFF009E28463146FEF785
:1038B000EBFEB4F90C3038B99A05EFD423F00303CA
:1038C00043F00203A381E3E743F08003A381019B5C
:1038D0002060C4E90406002BE0D0B4F90E1028469D
:1038E00000F01CF80028D9D0A38923F0030343F08B
:1038F0000103A381D2E7000038B5074C0023054639
:1039000008461146236000F029F8431C02D12368C1
:1039100003B12B6038BD00BF2403002038B5064C2E
:10392000002305460846236000F028F8431C02D116
:10393000236803B12B6038BD2403002051F8043CF8
:10394000181F002BBCBF0B58C0187047024B5822E1
:103950001A604FF0FF30704724030020024B5822BA
:103960001A604FF0FF30704724030020024B5822AA
:103970001A604FF0FF30704724030020024B58229A
:103980001A600020704700BF24030020024B582219
:103990001A604FF0FF30704724030020024B58227A
:1039A0001A604FF0FF30704724030020024B58226A
:1039B0001A604FF0FF30704724030020044A054985
:1039C0001368002B08BF0B46184410601846704758
:1039D0003403002040080020024B58221A604FF0A8
:1039E000FF30704724030020FEE700BF124B00B5F4
:1039F000DB683733632B83B00ADC002B15DB592BD4
:103A000006DC452B14DC312B0FDDA523FF2201E062
:103A1000FF23002209484FF0000C01790068CDF81F
:103A200000C001F07DFD03B000BD0023FF22F1E7DF
:103A3000FF231A46EEE700BFDC030020C00300208E
:103A40002BB32DE9F0470025114C82B091468846F2
:103A500007461E46AA4621792068CDF800904346C5
:103A60003A4601F05DFDC82001F034FC00232179C5
:103A70002068CDF800A01A4601F052FD0135C8209B
:103A800001F028FCAE42E6D102B0BDE8F0877047F5
:103A9000C00300200138C0B2032814D800B50E4975
:103AA000DFF840C00D4B0E4A11F800E01B5C125CC1
:103AB0009CF80410DCF8000083B0CDF800E001F0C1
:103AC0002FFD03B000BD074B5B7923B1064B1B787C
:103AD0000BB9FFF78BBF7047708300087483000831
:103AE00078830008C0030020D803002010B5364CAE
:103AF000627984B02AB9354C6379002B43D104B084
:103B000010BD21792068242201F030F92179206844
:103B10000B2201F02BF9142001F0DCFB06232179A4
:103B200020680093002202AB01F0A4F90028E2D043
:103B3000BDF80820BDF80B30DFED256A9FED256A42
:103B4000DFED255A214C52BA92B207EE102A5BBA29
:103B50009BB207EE903AB8EE477AF8EE677A27EE16
:103B6000267A67EEA57AC7EE066A1C4B87EE867A40
:103B7000DFED1B5A83ED017A76EEE57AC3ED007A2C
:103B80006379002BBBD021792068102201F0EEF878
:103B9000B42001F09FFB21792068022302AA01F0E2
:103BA00077FA0028ABD0BDF80830DFED0E6A5BBABB
:103BB0009BB207EE903AF8EE677A084B87EEA67A4A
:103BC00083ED027A04B010BDA8030020A0030020FA
:103BD00000002F4300FF7F470000C842DC030020A5
:103BE000000034429A99993FF8B5164604467AB1D6
:103BF0000F4600250621204602F016FB0028F9D0CA
:103C0000795D01352046EDB202F006FBB542F1D3F5
:103C10000621204602F008FB0028F9D03046F8BD06
:103C20002DE9F0476F4D704CDFF8E4A16F4EDFF8DF
:103C3000E4910FCD88B00FC495E80F0007C420466B
:103C400000F81C39FCF704FBA4F11C0182B268489F
:103C5000FFF7CAFFE02106A801F0BEFCDDE906017E
:103C60008AE80300C02106A801F0B6FCDDE90601E0
:103C700086E80300C82106A801F0A6FDDDE90601DB
:103C8000737989E80300002B40F0A380382106A84F
:103C900001F0E8FDDDE90601DFF87C81554F564C67
:103CA00088E803000822882106A801F035F8DDE93C
:103CB0000601082287E80300462106A801F02CF837
:103CC000DDE9060184E803006379002B5AD02179ED
:103CD0002068012201F04AF821792068072201F0CA
:103CE00045F8E82106A801F061FBDDE90601434D36
:103CF00085E803006B79002B5DD1414A9AF80530C5
:103D0000002B56D03F4B7179002950D03D4899F88F
:103D10000510002949D03B4D98F80510002942D0E4
:103D200038497E79002E3CD0364E6479002C36D04E
:103D3000344C0291CDE90005CDE9036432492A48AB
:103D4000324D294C03F084FA2748FCF781FA2649C2
:103D500082B22748FFF748FF0FCD0FC495E8070050
:103D600003C424F8022B2046130C00F81A39FCF780
:103D70006FFA82B21E48A4F11A0108B0BDE8F047FC
:103D8000FFF732BFB02106A8082200F0C5FFDDE929
:103D9000060184E803006379002BA2D097E7184C52
:103DA000C7E7174EC1E71649BBE7154DB4E71448FE
:103DB000ADE7134BA7E72979212200F0D7FF297936
:103DC0002868A02200F0D2FF6B79002B95D00D4A15
:103DD00094E700230093317930681A4601F0A0FB84
:103DE00054E700BFB88000083C030020C003002057
:103DF00000440040A8030020A0030020D0030020BE
:103E0000B48000087C820008D88000081C8100086B
:103E1000C8030020B8030020B003002070B50228BA
:103E200082B0044634D0032818D001285CD1454C18
:103E3000454B22780132A3FB021303F4FE7101EB20
:103E40009303D21A4149D0B24B792070002A5CD03A
:103E500013B1FFF71FFE22783D490BE03D4C3E4B6E
:103E600022785979002A14BF002264222270002986
:103E700061D13A493A4803F0EBF93948FCF7E8F9DF
:103E8000374982B2374802B0BDE87040FFF7ACBE98
:103E900000F0D6FB34484379002B40D12B4D6B7991
:103EA000FBB1002600E00124297928680096FF2351
:103EB000002201F035FBC82001F00CFA002329791B
:103EC000286800961A4601F02BFBC82001F002FA80
:103ED000012CE8D11B4B187818B16B790BB1FFF7A7
:103EE000D9FD224A2249C5E7224B1D4C93E8070021
:103EF00084E807002046FCF7ABF982B21948214656
:103F000002B0BDE87040FFF76FBE0BB1FFF76EFD6A
:103F1000194D134C0FCD0FC42B682370ADE7174A12
:103F20001278102301930093013201790068D2B214
:103F300001F0A4FBB2E71979186801F0C5FC2278FA
:103F400097E700BFD8030020CDCCCCCCC003002025
:103F50004C81000838030020B00300207481000861
:103F60003C03002000440040C8030020F803002068
:103F70005C8100088481000838810008DA03002091
:103F80002DE9F04FC5B072B69A4D9B492C88A4B26A
:103F9000FF2C264604AF28BFFF2632463846FFF7DF
:103FA0007BF900232B8062B6D4B3DFF874921D46F0
:103FB00098467B5DFC2B10D199F800306BB12C1D1D
:103FC000B4420ADA7B1993F801A0BAF1010F04D9BF
:103FD0000AEB0403023B9E4225DAAE4220D97B194C
:103FE0002C4604E00D2A09D08CB2A6423CD01A78A7
:103FF0000A2A04F1010103F10103F3D1AC4233D8E1
:10400000A64225460CD93B191A780A2A05F1010166
:1040100003F1010301D00D2A23D18DB2AE42F3D1B9
:1040200045B0BDE8F08FAAF1020010F0FF0014D0F7
:104030003C44631E002203E00132D1B288420CD915
:1040400013F8011F7C29F7D10023A3540132A018D3
:10405000A25C303A092A40F2E7800235AA441FFAEE
:104060008AF5AE42A5D8DBE707EB050A7C2150466E
:1040700007F8048003F00EF90028C1D07B5D1F2BE8
:10408000BED9437880F80080A3F13002092A01D913
:104090002E2BB5D1013002F0BBFA51EC100BFCF71E
:1040A000ABFD0390FCF778FA5246CDE90001534985
:1040B0005348DFF868B103F0CBF85148FCF7C8F873
:1040C0004F4982B24F48FFF78FFD5046DFF854A1A9
:1040D0009DED030A9AF8005000F02CFC9BF8053087
:1040E000C3B1FF23009300231A469BF80410DBF8AA
:1040F000000001F015FAC82001F0ECF8002300934D
:10410000DBF800009BF804101A4601F009FAC820F9
:1041100001F0E0F89AF80030AB4228D13A4841214A
:1041200002F07AF83848062102F07EF80028F9D02B
:104130003548432102F070F83348062102F074F844
:104140000028F9D030484B2102F066F82E480621AD
:1041500002F06AF80028F9D02B480A2102F05CF836
:104160002948062102F060F80028F9D048E7274ADC
:104170002749234803F06CF82148FCF769F82049E7
:1041800082B22048FFF730FD22484379002B40F0EF
:1041900083809BF80530002BC0D04FF0020A01E06D
:1041A0004FF0010A00231D469BF80410DBF80000C5
:1041B00000932A46FF2301F0B3F9C82001F08AF8E2
:1041C0009BF80410DBF8000000952B462A4601F00E
:1041D000A7F9C82001F07EF8BAF1010FE0D10E4B2B
:1041E000187800289AD09BF80530002B96D0FFF75E
:1041F00051FC93E7380600203C060020A881000807
:104200003C0300200044004000100140F80300205F
:10421000C0810008C8030020D8030020C00300208C
:1042200039030020DA03002002F0F2F951EC100B00
:10423000FCF7E2FC0390FCF7AFF92246CDE9000160
:104240001B491C4803F004F81A48FCF701F8194907
:1042500082B21948FFF7C8FC2046184C9DED030AAE
:1042600000F068FB6279002A3FF4F7AEFF2200926B
:104270000023217920681A4601F052F9C82001F084
:1042800029F800230093206821791A4601F048F9A3
:10429000C82001F01FF8E0E610239AF80020CDE9CD
:1042A0000033013201790068D2B201F0E7F970E71A
:1042B000908100083C03002000440040C00300201F
:1042C00010B582B0044608460191FBF7C1FF019981
:1042D00082B2204602B0BDE81040FFF785BC00BFA7
:1042E0002DE9F04F4FF440708BB002F07BF8A74DF2
:1042F000A748A84CA84E01F015F8A84801F070FC9A
:1043000000F0C8FF00F0B4FC00F072F90FCD0FC44C
:104310000FCD0FC495E80F0007C421469C4801F853
:104320002C39FFF7CDFF0FCEA4F12C050FC50FCE12
:104330000FC5336825F8023B994E95481A0CA4F135
:104340002C012A70FFF7BCFF0FCEA4F12C050FC57E
:104350000FCE0FC596E80F0007C521468C4801F81F
:104360002C39FFF7ADFFFFF75BFC002001F0B0FA3E
:10437000002800F0EF808B498548FFF7A1FF8A4BAA
:104380008A4909935B79089101220A702BB10022B6
:104390000323FF211046FFF753FB8548012101F05D
:1043A0006BFB84497A48FFF78BFF834F7B79002BA7
:1043B00000F0C8800023CDE90033397938681A4607
:1043C00001F05CF9099B5B79002B40F0D580DFF8A8
:1043D00018827A4D7A4E7B4CDFF810924FF0FF0A2C
:1043E0003EE03378002B38D000233370FFF77EFB9C
:1043F00000F050F900F0FCF900F022FA00F03AFA6F
:1044000000F068FA237E1BB1089B1B78002B7BD140
:1044100099F80030002B70D07B79002B54D1E368E1
:104420000693A068FCF7B8F8CDE904016068FCF7D2
:10443000B3F8CDE902012068FCF7AEF8624ACDE995
:1044400000016249534802F003FF5248FBF700FFA6
:10445000504982B24E48FFF7C7FB0A2000F03AFFEE
:10446000B8F800309BB20BB1FFF78AFD6B79002BD7
:10447000B7D02979286800F0CBFFFF28834617D0F2
:1044800002465349434802F0E3FE4248FBF7E0FE90
:10449000404982B23E48FFF7A7FBDA4508D0142016
:1044A00000F018FF2979286800F0B2FF584501D0C4
:1044B000DA4696E7FFF7B2FC2979286800F0A8FFF2
:1044C0005845F9D0DA468CE7E368424A3868373312
:1044D00023EAE373632BA8BF6323A2FB0312D20872
:1044E00002EB8201A3EB41031021CDE90011DBB205
:1044F0003979D2B201F0C2F891E7099B5B79002BC0
:104500008AD0FFF773FA87E7A068FCF745F8CDE992
:1045100004016068FCF740F8CDE902012068FCF76F
:104520003BF8294ACDE900012B491A4802F090FED8
:104530001848012101F0A0FA284915481C22FFF76C
:1045400053FB65E7CDE9003325481A46E02101F029
:1045500095F837E7234904460D48FFF7B1FE124BA3
:1045600009935B792BB1052322462146FF20FFF7F3
:1045700067FA0E4B089318E7099800220092017918
:104580000068FF2300F0CCFF21E700BFD8810008BE
:10459000004400403C030020088200080010014055
:1045A0002C8200085C820008C00300203903002030
:1045B0007082000880820008C8030020D003002019
:1045C000D9030020DC030020F8030020FC8200084F
:1045D000B0820008CDCCCCCCC4820008DC820008BC
:1045E000005400409C82000838060020D8030020B8
:1045F00000B50F4A0F4B1278DFF840E002EB4202A1
:1046000003EB021CBCE80F00AEE80F00BCE80F0093
:10461000AEE80F009CE80F008EE80F00064B00226A
:10462000C3E90022C3E90222C3E904229A6100BD62
:10463000DA0300207C830008DC030020F80300205C
:1046400010B5104C10492278104BDFF844E00132CD
:10465000A1FB020101F4FF7000EB5101521A02EBC1
:10466000420103EB011C2270BCE80F00AEE80F0012
:10467000BCE80F00AEE80F009CE80F008EE80F00CA
:1046800010BD00BFDA030020ABAAAAAA7C830008F1
:10469000F8030020504A514BD2ED007A93ED047A92
:1046A000F4EEC77AF1EE10FA5FD537EE677ADFEDF8
:1046B0004C6AF2EE047AE7EE676AF5EEC06AF1EE54
:1046C00010FA4CBF01200020D2ED017A93ED067A5A
:1046D000F4EEC77AF1EE10FA68D537EE677ADFEDBF
:1046E000407AB0EE006AE7EE467AF5EEC07AF1EE77
:1046F00010FA4CBF0121002192ED027A93ED086A75
:10470000B4EEC67AF1EE10FA46D536EE476A9FED62
:10471000347AF6EE005AA6EE657AB5EEC07AF1EE7E
:1047200010FA4CBF012300239FED2E6ADFED2E5AB5
:10473000002B18BFB0EE467A002818BFF0EE466A8C
:10474000002918BFF0EE467A67EEA57A9FED276A3A
:10475000E6EE867AE7EE067AFDEEE77A17EE903A15
:10476000632BA8BF6323D360704793ED057AF4EE03
:10477000C77AF1EE10FA2BDD77EEC77ADFED186A13
:10478000B2EE047AE7EEC76AF5EEC06AF1EE10FA0F
:104790004CBF0120002097E793ED096AB4EEC67A7A
:1047A000F1EE10FA10DD37EE466AB0E793ED077AC6
:1047B000F4EEC77AF1EE10FA02DD37EEC77A8EE733
:1047C000DFED077A002197E79FED057A0023ABE73D
:1047D000DFED036A002077E7DC030020F803002008
:1047E0000000C84200000000CDCCCC3E9A99993E12
:1047F000104BD3ED027A93ED006AD3ED016A5A8B28
:10480000B6EE007A67EE877A9FED0B7AE6EE077ACE
:104810009FED0A7AE6EEC77AC3ED047A32B993EDDA
:10482000057A77EE277AC3ED057A7047013A5A8305
:10483000704700BFDC0300209A99993ECDCC4C3ED6
:104840000A4BDFED0B7A93ED057AB4EEE77AF1EEE1
:1048500010FA07DD4FF4616200215A830122596189
:104860001A76704700221A76704700BFDC030020DA
:104870000000FA43134B5A79DAB118681979124BD0
:10488000124AB3F828C092ED027A07EE90CAF8EE09
:10489000E77AB4EEE77AF1EE10FA10DC5B8D07EE02
:1048A000903AF8EEE77AB4EEE77AF1EE10FA03D434
:1048B000704707483821E2E7002201F005B864227A
:1048C00001F002B8B0030020F8030020DC03002050
:1048D00000540040134B5A79DAB118681979124B19
:1048E000124AB3F82CC092ED017A07EE90CAF8EEA6
:1048F000E77AB4EEE77AF1EE10FA10DCDB8D07EE22
:10490000903AF8EEE77AB4EEE77AF1EE10FA03D4D3
:1049100070470748C821E2E7002200F08DBF5A2205
:1049200000F08ABFB8030020F8030020DC03002059
:1049300000540040F6EE007AB4EEE70AF1EE10FA09
:1049400027D410B53D492DED028B0446B0EE408AC8
:1049500002F0C0FC002854D0DFF800E1DFF800C10D
:10496000DFED377ABEE80F00ACE80F00354B0022D0
:104970001A70BEE80F00ACE80F009EE80F00B4EE1E
:10498000E78AF1EE10FA8CE80F0023DCBDEC028B15
:1049900010BD70472C49204602F09CFC0028F5D041
:1049A000DFF8C0E0DFF8B8C0DFED257ABEE80F0021
:1049B000ACE80F00234B02221A70BEE80F00ACE8EF
:1049C0000F009EE80F00B4EEE78AF1EE10FA8CE8D3
:1049D0000F00DBDD1D4BDFED1E7A93ED027AB4EEA6
:1049E000E77AF1EE10FAD1DD1A4B5A79002ACDD0D0
:1049F000BDEC028B19791868BDE81040642200F004
:104A000063BF1549204602F065FC0028C2D0DFF8DC
:104A100058E0DFF84CC0BEE80F00ACE80F00094BCF
:104A200001221A70BEE80F00ACE80F009EE80F00EC
:104A30008CE80F00BDEC028B10BD00BF2483000882
:104A40003333333FDA03002034830008DC030020D3
:104A500000004844B00300202C8300087C83000839
:104A6000F8030020DC830008AC8300082DE9F04146
:104A700004460E46174698464CF2503501E0013D7B
:104A800056D04FF4A061204601F0CCFA0028F6D0B1
:104A90006FF001023146204601F0A4FA4CF2503585
:104AA00001E0013D44D040F20151204601F0BAFA44
:104AB0000028F6D040F20151204601F0BBFA4CF23A
:104AC000503501E0013D33D040F20751204601F05E
:104AD000A9FA0028F6D03946204601F09DFA4CF29A
:104AE000503501E0013D23D040F20251204601F053
:104AF00099FA0028F6D04146204601F08DFA4CF292
:104B0000503501E0013D13D040F20251204601F042
:104B100089FA0028F6D0204601F078FA4CF250339A
:104B200001E0013B02D022689205FAD4BDE8F08191
:104B30002046BDE8F04101F069BA00BF10B540F66B
:104B4000014001F0BBFB15484FF48072042101F0D5
:104B50007BF912484FF40072042101F075F90F48F7
:104B60004FF480730122022101F01CF90B484FF42D
:104B700080730222012101F041F908484FF40073CB
:104B80000122022101F00EF9BDE8104003484FF464
:104B900000730222012101F031B900BF000402407C
:104BA00008B541F2150001F089FB0A490A480022C4
:104BB00001F086F9002272231146074801F0F2F94C
:104BC000054801F017FABDE808400348012101F04B
:104BD000F5B900BFA08601000054004010B540F6B2
:104BE000054001F06BFB12480222042101F02CF970
:104BF0000F480122042101F027F901231A460C482D
:104C0000022101F0CFF8012319460948022201F0E0
:104C1000F5F8022319460648012201F0C3F80223E1
:104C2000BDE8104002481A46012101F0E7B800BF74
:104C30000014024008B541F2160001F03FFB0A499A
:104C40000A48002201F03CF900227223114607486D
:104C500001F0A8F9054801F0CDF9BDE80840034886
:104C6000012101F0ABB900BFA0860100005800404F
:104C700008B5FFF763FFFFF793FFFFF7AFFFBDE84E
:104C80000840FFF7D7BF00BF70B504460E464CF290
:104C9000503501E0013D3CD040F20161204601F079
:104CA000C1F90028F6D1204601F0AAF94CF250359E
:104CB00001E0013D2DD04FF4A061204601F0B2F992
:104CC0000028F6D06FF001023146204601F08AF943
:104CD0004CF2503501E0013D18D040F20151204620
:104CE00001F0A0F90028F6D040F20151204601F071
:104CF000A1F9204601F08AF94CF2503301E0013B62
:104D000007D022689205FAD4012070BD204601F038
:104D10007DF9002070BD00BFF8B50746D2B1164638
:104D20000C4600250F482146FFF7AEFF30B10D4B72
:104D30003C7101227A713B603846F8BD0A48214631
:104D4000FFF7A2FF08B1084BF2E701350234AE428B
:104D5000E4B2E7D100231C461A463C717A713B60ED
:104D60003846F8BD0054004000580040F8B50446ED
:104D70000E4617464CF2503501E0013D53D040F24B
:104D80000161204601F04EF90028F6D1204601F0DD
:104D900037F94CF2503501E0013D45D04FF4A061A8
:104DA000204601F03FF90028F6D06FF001023146AD
:104DB000204601F017F94CF2503501E0013D33D0A7
:104DC00040F20151204601F02DF90028F6D040F2C2
:104DD0000151204601F02EF94CF2503501E0013D21
:104DE00022D040F20751204601F01CF90028F6D0ED
:104DF0003946204601F010F94CF2503501E0013DF2
:104E000012D040F20251204601F00CF90028F6D0F1
:104E1000204601F0FBF84CF2503301E0013B02D098
:104E200022689205FAD4F8BD2046BDE8F84001F0AA
:104E3000EDB800BF2DE9F04105460E4617469846ED
:104E40004CF2503401E0013C11D040F2016128469F
:104E500001F0E8F80028F6D1284601F0D1F84346E1
:104E60003A4631462846BDE8F041FFF7FFBDBDE8B0
:104E7000F08100BF2DE9F8430446BDF82060884664
:104E800091461F464CF2503502E0013D00F0A980EA
:104E900040F20161204601F0C5F80028F5D1204616
:104EA00001F0AEF84CF2503502E0013D00F0968082
:104EB0004FF4A061204601F0B5F80028F5D06FF05E
:104EC00001024146204601F08DF84CF2503502E0D7
:104ED000013D00F0838040F20151204601F0A2F82C
:104EE0000028F5D040F20151204601F0A3F84CF221
:104EF000503501E0013D71D040F20751204601F0EC
:104F000091F80028F6D04946204601F085F84CF289
:104F1000503501E0013D61D040F20251204601F0E0
:104F200081F80028F6D0204601F06AF84CF250359E
:104F300001E0013D52D04FF4A061204601F072F82B
:104F40000028F6D001224146204601F04BF8012E00
:104F50006BD0022E00F082804CF2503501E0013D12
:104F60003CD040F20151204601F05CF80028F6D018
:104F700040F20151204601F05DF80121204601F088
:104F80001DF8C6B1032E2FD0022E3ED04CF2503564
:104F900001E0013D22D040F20651204601F042F8E6
:104FA0000028F6D0204601F039F8013EB6B207F8E5
:104FB000010B002EE6D14CF2503301E0013B02D050
:104FC00022689205FAD42046012100F0F7FF20461E
:104FD000012100F0FDFF0120BDE8F883204601F02B
:104FE00015F80020BDE8F8834CF2503501E0013D92
:104FF000F4D040F20251204601F014F80028F6D017
:105000000021204600F0DAFFC0E74CF2503501E005
:10501000013DE3D040F20251204601F003F80028A0
:10502000F6D0204600F0F2FFB0E70021204600F065
:10503000C5FF4CF2503501E0013DCFD040F20151A7
:10504000204600F0EFFF0028F6D0204640F2015144
:1050500000F0F0FF204600F0D9FF93E70021204642
:1050600000F0B6FF4CF2503501E0013DB6D040F201
:105070000151204600F0D6FF0028F6D0204640F22D
:10508000015100F0D7FF0021204600F097FF79E79B
:105090002DE9F0410546884617461E464CF250342D
:1050A00001E0013C64D040F20161284600F0BAFF03
:1050B0000028F6D1284600F0A3FF4CF2503401E05E
:1050C000013C52D04FF4A061284600F0ABFF00280D
:1050D000F6D001224146284600F084FF012E00F060
:1050E0008580022E68D04CF2503401E0013C3CD067
:1050F00040F20151284600F095FF0028F6D040F21A
:105100000151284600F096FF0121284600F056FF85
:10511000C6B1032E2FD0022E3ED04CF2503401E007
:10512000013C22D040F20651284600F07BFF0028C7
:10513000F6D0284600F072FF013EB6B207F8010B28
:10514000002EE6D14CF2503301E0013B02D02A6838
:105150009205FAD42846012100F030FF28460121AB
:1051600000F036FF0120BDE8F081284600F04EFF38
:105170000020BDE8F0814CF2503401E0013CF4D055
:1051800040F20251284600F04DFF0028F6D00021E1
:10519000284600F013FFC0E74CF2503401E0013C18
:1051A000E3D040F20251284600F03CFF0028F6D040
:1051B000284600F02BFFB0E70021284600F008FF4A
:1051C0004CF2503401E0013CCFD040F2015128466E
:1051D00000F028FF0028F6D0284640F2015100F0E8
:1051E00029FF0021284600F0E9FE92E70021284629
:1051F00000F0E4FE4CF2503401E0013CB5D040F246
:105200000151284600F00EFF0028F6D0284640F253
:10521000015100F00FFF284600F0F8FE79E700BFCB
:105220002DE9F04182B000240194019C174644F618
:105230001F62944205460E46984605D8019B0133ED
:105240000193019B9342F9D94CF2503401E0013CA7
:105250000FD040F20161284600F0E4FE0028F6D1AC
:10526000284600F0CDFE43463A4631462846FFF731
:10527000FDFB00230093009B44F61F62934205D878
:10528000009B01330093009B9342F9D902B0BDE823
:10529000F08100BF0C4B0D4A1B68A2FB03239B0946
:1052A000013BB3F1807F00D3FEE74FF0E0220849D5
:1052B000536100204FF0F00C072381F823C0906168
:1052C000136181F823007047C8010020D34D62109C
:1052D00000ED00E0024A10601368002BFCD170471B
:1052E000300400200B4B1A6812B11A68013A1A6098
:1052F00009490A4A0B6801330B6013889BB2591C99
:10530000B3F52F7F118004D3054B002001211080BD
:1053100019707047300400202C040020280400205D
:10532000D903002010B5044640F6034000F0C6FF44
:1053300041F2110000F0C2FF1B482022072100F0BB
:1053400083FD19484022072100F07EFD16482023E6
:105350000122022100F026FD134820230222002111
:1053600000F04CFD104840230122022100F01AFDFC
:105370004023022200210C4800F040FD204600F0AE
:105380006DFE20464FF4E13100F0E0FE204604219E
:1053900000F03CFF2046082100F032FF2046BDE827
:1053A000104000F027BF00BF000C0240F8B501F12B
:1053B00008060D460746F6B20C4613482146FFF78D
:1053C00063FC90B90234E4B2B442F6D10F482946E6
:1053D000FFF75AFCAB1CA0B9DDB2B542F6D10A4EBC
:1053E00078713C713E603846F8BD074E3046212248
:1053F0002146FFF7BBFC012078713C713E603846C6
:10540000F8BD024E2C46F1E7005400400058004021
:1054100010B584B0062402AB00944022FFF72AFDA9
:105420009DF8083013F001001DD19DF80A20D10726
:105430001BD49DF80C10C8071CD4980718D49007EB
:105440001DD488071DD4580717D454071BD4480708
:105450001BD413F008001AD1130704D411F0080F5D
:105460000CBFFF20232004B010BD022004B010BDEB
:105470000420F8E7032004B010BD0720F3E705205F
:10548000F1E72046EFE70820EDE70920EBE72A20C7
:10549000E9E700BF70B5002304460D46FA22FFF786
:1054A000C9FC294620460023FB22FFF7C3FC2946FE
:1054B00020460023FC22FFF7BDFC2946204610238E
:1054C000BDE87040FD22FFF7B5BC00BF2DE9F041FB
:1054D0009400A21D984602F0FE02DBB205460E467D
:1054E000BDF81870FFF7A6FCE21D4FEA18233146FD
:1054F0002846D2B2FFF79EFC04F10802FBB2314607
:10550000284602F0FC02FFF795FC04F109023B0A71
:1055100031462846D2B2BDE8F041FFF78BBC00BF50
:10552000F0B5120183B00F3200921F4601220F2303
:1055300005460E469DF82040FFF7C8FF0F2303EBFA
:1055400007120092314628460022FFF7BFFF0F23C3
:1055500003EB0414022231462846089403B0BDE848
:10556000F040FFF7B3BF00BF38B5022204460D4636
:105570000023FFF75FFC2946204600230322FFF7A4
:1055800059FC2946204600230422FFF753FC2946F4
:10559000204600230522FFF74DFC29462046002324
:1055A0000622FFF747FC2946204600230722FFF783
:1055B00041FC2946204600230822FFF73BFC2946F0
:1055C000204600230922FFF735FC29462046812288
:1055D000BDE83840FFF7CABBF8B501F14003DBB2C4
:1055E000202B06461CD801F108070D46FFB20C46D9
:1055F00020482146FFF748FBC8B90234E4B2BC4258
:10560000F6D11D482946FFF73FFBAB1C28BBDDB296
:10561000BD42F6D1174F7071347137603046F8BD16
:10562000002420467071347137603046F8BD114F48
:10563000C82C07D9DF2C13D8012070713471376062
:105640003046F8BD0023214638461A46FFF7E8FDEC
:1056500021463846FFF71EFFEEE7074F2C46E7E7E7
:10566000214638462122FFF781FB21463846FFF7C5
:105670007BFFE1E700540040005800402DE9F0476F
:105680002D4E9DF820709DF824909246984616F86D
:105690001A3006EB4A0A04460D460222FFF7CAFBFF
:1056A0009AF80130294620460322FFF7C3FB29461A
:1056B00020468122FFF75AFB16F8183006EB4808FF
:1056C000294620460422FFF7B5FB98F80130294609
:1056D00020460522FFF7AEFB294620468122FFF730
:1056E00045FB16F8173006EB4707294620460622E9
:1056F000FFF7A0FB7B78294620460722FFF79AFB9D
:10570000294620468122FFF731FB16F8193006EBB7
:105710004906294620460822FFF78CFB29462046E9
:1057200073780922FFF786FB294620468122BDE8CF
:10573000F047FFF71BBB00BF0C84000870B50023C7
:1057400004460D46FA22FFF775FB29462046002342
:10575000FB22FFF76FFB294620460023FC22FFF7C0
:1057600069FB294620461023BDE87040FD22FFF763
:1057700061BB00BF2DE9F0419400A21D984602F0E4
:10578000FE02DBB205460E46BDF81870FFF748FD75
:10579000E21D4FEA182331462846D2B2FFF740FDFA
:1057A00004F10802FBB23146284602F0FC02FFF782
:1057B00037FD04F109023B0A31462846D2B2BDE862
:1057C000F041FFF72DBD00BFF8B501F108060D4609
:1057D0000746F6B20C4616482146FFF755FA90B92F
:1057E0000234E4B2B442F6D112482946FFF74CFA2B
:1057F000AB1CC8B9DDB2B542F6D10D4E78713C7123
:105800003E603846F8BD0A4E00231A46214630460F
:10581000FFF706FD30462146FFF790FF0120787123
:105820003C713E603846F8BD024E2C46ECE700BFA6
:10583000005400400058004000B5642A28BF64228C
:10584000074BC2EB023283B0A3FB0232C2F34F120A
:10585000002300921A46FFF78DFF03B000BD00BF82
:105860001F85EB51F8B501F108060D460746F6B263
:105870000C4613482146FFF707FA90B90234E4B208
:10588000B442F6D10F482946FFF7FEF9AB1C78B9B0
:10589000DDB2B542F6D10A4B78713C713B603846B7
:1058A000F8BD0120064B78713C713B603846F8BD6D
:1058B0002C460120034B78713C713B603846F8BDA3
:1058C000005400400058004013460322FFF7A8BCD4
:1058D00070B5624B624A634D064693E803009CB084
:1058E000614B02908DF80C1092E8030004908DF843
:1058F000141093E803005D4B0890ADF8241093E872
:1059000003005B4A019206908DF81C100FCD0DF13B
:10591000280CACE80F002B68CCF8003003243222AE
:1059200000210FA8FBF783FF04220DEB0201514871
:1059300000F0C4F8C8230A224E480FA900F0DAF894
:105940009DF83C20FB2A04F1FF3306D013F0FF043E
:10595000E5D1002630461CB070BD02AD04AB012E6F
:1059600008BF1D460324322200210FA8FBF75FFF6A
:10597000052229463F4800F0A1F8C8230A223D48E5
:105980000FA900F0B7F89DF83C20FA2A04F1FF3384
:1059900003D013F0FF04E6D1DBE79DF83D60012E54
:1059A000F7D10324322200210FA8FBF740FF062283
:1059B00008A9304800F082F8C8230A222D480FA910
:1059C00000F098F89DF83C20FA2A04F1FF3303D048
:1059D00013F0FF04E6D1BCE79DF83D50032DF7D14D
:1059E0002C46322200210FA8FBF721FF052206A931
:1059F000204800F063F8C8230A221E480FA900F0CF
:105A000079F89DF83C20FA2A04F1FF3303D013F013
:105A1000FF04E6D19DE79DF83D20092AF7D1322207
:105A200000210FA8FBF703FF14220AA9114800F078
:105A300045F8C8230F480A220FA900F05BF89DF82B
:105A40003C30FA2B05F1FF3503D015F0FF05E6D108
:105A50007FE79DF83D30042BF7D17BE740830008BA
:105A6000C07C000848830008608300086883000841
:105A7000FE01FEFF0010014030B59DB00C4605460A
:105A8000FAF7E6FBC2B2931CFC2029468DF80C0005
:105A90008DF80D3004A8012301928DF80E308DF899
:105AA0000F40FDF7F9FB019A0348043203A900F007
:105AB00005F81DB030BD00BF00100140F8B5174615
:105AC000044672B10D468E180621204600F0ACFB4C
:105AD0000028F9D015F8011B204600F09DFBB542C7
